:020000040800F2
:1000000070060020890100085D060008A5030008AD
:10001000030500083B020008750B00080000000003
:10002000000000000000000000000000250A000899
:100030003F02000800000000030A0008110B00083E
:10004000A3010008A3010008A3010008A301000800
:10005000A3010008A3010008A3010008A3010008F0
:10006000A3010008A3010008A3010008A3010008E0
:10007000A3010008A3010008A3010008A3010008D0
:10008000A3010008A3010008A3010008A3010008C0
:10009000A3010008A3010008A3010008A3010008B0
:1000A000A3010008A3010008A3010008A3010008A0
:1000B000A3010008A3010008A3010008A301000890
:1000C000A3010008A3010008A3010008A301000880
:1000D000A3010008A3010008A3010008A301000870
:1000E000A3010008A3010008A301000800F002F822
:1000F00000F03AF80AA090E8000C82448344AAF188
:100100000107DA4501D100F02FF8AFF2090EBAE885
:100110000F0013F0010F18BFFB1A43F0010318473B
:100120000C1100002C110000103A24BF78C878C1CF
:10013000FAD8520724BF30C830C144BF04680C60ED
:10014000704700000023002400250026103A28BF35
:1001500078C1FBD8520728BF30C148BF0B60704739
:100160001FB51FBD10B510BD00F031F81146FFF7E7
:10017000F7FF00F001FD00F04FF803B4FFF7F2FFC6
:1001800003BC00F053F800000948804709480047C5
:10019000FEE7FEE7FEE7FEE7FEE7FEE7FEE7FEE737
:1001A000FEE7FEE704480549054A064B7047000094
:1001B000150B0008ED0000087000002070060020FC
:1001C000700200207002002070477047704775462B
:1001D00000F028F8AE4605006946534620F00700B7
:1001E000854618B020B5FFF7DDFFBDE820404FF091
:1001F00000064FF000074FF000084FF0000B21F011
:100200000701AC46ACE8C009ACE8C009ACE8C009DD
:10021000ACE8C0098D4670470446AFF30080204625
:10022000FFF7ABFF0048704710000020014918207D
:10023000ABBEFEE726000200704700BFFEE7704736
:1002400000EBC001C9004FF0E02251610021916133
:100250000521116100BF4FF0E021096901F48031EF
:100260000029F8D004214FF0E022116170472DE9F8
:10027000F04102460025002600200023002400272C
:1002800091F803C00CF00F0591F803C00CF0100CAE
:10029000BCF1000F03D091F802C04CEA050591F8BB
:1002A00000C0BCF1000F31D0146800202BE04FF0EB
:1002B000010C0CFA00F3B1F800C00CEA03069E42F0
:1002C00020D183004FF00F0C0CFA03F7BC4305FA62
:1002D00003FC4CEA040491F803C0BCF1280F06D1DA
:1002E0004FF0010C0CFA00FCC2F814C00AE091F8BF
:1002F00003C0BCF1480F05D14FF0010C0CFA00FC13
:10030000C2F810C0401C0828D1D31460B1F800C056
:10031000BCF1FF0F34DD546800202EE000F1080C22
:100320004FF0010808FA0CF3B1F800C00CEA03061C
:100330009E4221D183004FF00F0C0CFA03F7BC430F
:1003400005FA03FC4CEA040491F803C0BCF1280F41
:1003500005D100F1080C08FA0CF8C2F8148091F8E5
:1003600003C0BCF1480F07D100F1080C4FF00108A1
:1003700008FA0CF8C2F81080401C0828CED354604C
:10038000BDE8F0810246002093680B400BB10120CC
:1003900000E000207047016170470AB1016100E090
:1003A0004161704700BFFEE72DE9F05F06460F464A
:1003B00090469946DDE90AAB3B2000F06CF8044614
:1003C0003C2000F068F8054645EA042000B2308081
:1003D0003D2000F060F804463E2000F05CF8054641
:1003E00045EA042000B238803F2000F054F804466B
:1003F000402000F050F8054645EA042000B2A8F875
:100400000000432000F047F80446442000F043F881
:10041000054645EA042000B2A9F80000452000F096
:100420003AF80446462000F036F8054645EA04202E
:1004300000B2AAF80000472000F02DF8044648203A
:1004400000F029F8054645EA042000B2ABF80000A8
:10045000BDE8F09F10B5752000F01DF810BD10B577
:1004600000F052F801216B2000F034F800216C20DC
:1004700000F030F80921192000F02CF806211A208C
:1004800000F028F818211B2000F024F818211C2067
:1004900000F020F810BD70B5044600F0A9F8D02097
:1004A00000F091F800F05AF8204600F08CF800F0C7
:1004B00055F800F09DF8D12000F085F800F04EF8D6
:1004C00000F05BF80546012000F071F800F09EF89E
:1004D000284670BD70B505460C4600F089F8D0205E
:1004E00000F071F800F03AF8284600F06CF800F0DF
:1004F00035F8204600F067F800F030F800F086F894
:1005000070BD00BFFEE7000008B50121042000F027
:1005100079FA14208DF803004FF44060ADF8000024
:1005200003208DF8020069460448FFF7A0FE4FF44F
:1005300040610248FFF72FFF08BD0000000801409E
:1005400010B54FF400610448FFF71CFF04460A2071
:10055000FFF776FE204610BD0008014010B50120CF
:1005600000F06EF8012000F05DF8FFF7E9FF0446A7
:10057000002000F057F8204610BD70B5002501207E
:1005800000F05EF800240EE0012000F04BF8FFF7C9
:10059000D7FF012802D1802020410543002000F030
:1005A00041F8601CC4B2082CEEDB284670BD10B5C3
:1005B0000446204600F044F8012000F033F8002003
:1005C00000F030F810BD70B5054600240DE0802124
:1005D000214101EA050000F033F8012000F022F883
:1005E000002000F01FF8601CC4B2082CEFDB70BDC7
:1005F00010B5012000F024F8012000F013F80020CD
:1006000000F01EF8002000F00DF810BD10B500201D
:1006100000F016F8012000F005F8012000F010F8B5
:1006200010BD000010B5044622464FF48051034827
:10063000FFF7B3FE0A20FFF703FE10BD00080140DC
:1006400010B5044622464FF400610348FFF7A5FEAB
:100650000A20FFF7F5FD10BD00080140704770B596
:1006600000240EE00021204600F0EFF8002504E011
:10067000002000F0B6F9681CC5B2802DF8DB601CC4
:10068000C4B2082CEEDB70BD08B50121082000F0D3
:10069000B9F914208DF8030003208DF802004FF4FF
:1006A0008060ADF8000069460A48FFF7E0FD4FF4AE
:1006B0000060ADF8000069460648FFF7D8FD01224A
:1006C00091020448FFF769FE0122D1020148FFF7B9
:1006D00064FE08BD000C014070B50546002415E01D
:1006E0008020204100EA05024FF400610E48FFF728
:1006F00054FE012291020C48FFF74FFE00224FF4F6
:1007000080610948FFF749FE601CC4B2082CE7DB92
:10071000012291020448FFF740FE00224FF480615D
:100720000148FFF73AFE70BD000C014010B50122F0
:10073000D1020A48FFF731FE012291020748FFF774
:100740002CFE00224FF400610448FFF726FE002231
:100750004FF480610148FFF720FE10BD000C0140FE
:1007600010B500224FF400610648FFF716FE012283
:1007700091020448FFF711FE0122D1020148FFF760
:100780000CFE10BD000C014070B5002406E00025F1
:1007900000E06D1CB5F57A7FFBD3641CB4F57A7F5D
:1007A000F5D3FFF771FFAE2000F00BF9D52000F074
:1007B00008F9802000F005F9A82000F002F93F2098
:1007C00000F0FFF8D32000F0FCF8002000F0F9F86A
:1007D000402000F0F6F8A12000F0F3F8C82000F067
:1007E000F0F8DA2000F0EDF8122000F0EAF88120AD
:1007F00000F0E7F8CF2000F0E4F8D92000F0E1F8AD
:10080000F12000F0DEF8DB2000F0DBF8302000F013
:10081000D8F8A42000F0D5F8A62000F0D2F88D205A
:1008200000F0CFF8142000F0CCF8AF2000F0C9F8A9
:10083000FFF715FF70BD10B50246012000E05043E0
:100840000B00A1F10101FAD110BD70B505460C46AF
:1008500045F0B00000F0B5F8102141EA141000F0A6
:10086000B0F804F00F0000F0ACF870BD2DE9F041D5
:1008700005460E461746721ED206110E6A1E520615
:10088000100EFFF7E2FF002409E0A7F12001134A50
:1008900002EB0111085D00F0A4F8601CC4B2082C42
:1008A000F3DB721ED206110E6A1E012303EB420215
:1008B000D0B2FFF7CAFF00240BE0A7F12001074ADE
:1008C00002EB011204F10801505C00F08AF8601C90
:1008D000C4B2082CF1DBBDE8F08100003C0C00083C
:1008E0002DE9F04781460E4690461F4600241DE044
:1008F000381B411E1020FFF79EFFB8FBF0F000F000
:100900000F050A2D08DA05F13000C2B23019C1B264
:100910004846FFF7ABFF07E005F13700C2B23019D8
:10092000C1B24846FFF7A2FF601CC4B2BC42DFDB85
:10093000BDE8F0872DE9F0478146884615461E46FA
:10094000002D06DB2B2241464846FFF78FFF2F463E
:1009500005E02D2241464846FFF788FF6F420024FC
:1009600017E0301B411E0A20FFF765FFB7FBF0F0D0
:100970000A21B0FBF1F201FB120000F1300A08EB92
:100980000400401CC1B252464846FFF76FFF601C8E
:10099000C4B2B442E5DBBDE8F0872DE9F04107467B
:1009A0000E461546002407E02A5D3019C1B23846CC
:1009B000FFF75CFF601CC4B2285D0028F4D1BDE8DD
:1009C000F08110B50446FFF7B1FE7820FFF784FEF2
:1009D0000020FFF781FE2046FFF77EFEFFF7C0FEF6
:1009E00010BD10B50446FFF7A1FE7820FFF774FE96
:1009F0004020FFF771FE2046FFF76EFEFFF7B0FEC6
:100A000010BD704729B1064A92690243044B9A61AE
:100A100004E0034A92698243014B9A6170470000E7
:100A200000100240704710B500F002F810BD000041
:100A30000CB50020019000903348006840F48030ED
:100A40003149086000BF3048006800F40030009071
:100A50000198401C0190009818B90198B0F5A06F5A
:100A6000F1D12948006800F4003010B10120009055
:100A700001E0002000900098012843D1234800683D
:100A800040F01000214908600846006820F003008B
:100A900008600846006840F0020008601A48406894
:100AA000194948600846406848600846406840F474
:100AB000806048600846406820F47C104860084622
:100AC000406840F4E81048600846006840F08070D4
:100AD000086000BF0C48006800F000700028F9D0E2
:100AE0000948406820F0030007494860084640680C
:100AF00040F00200486000BF0348406800F00C006E
:100B00000828F9D10CBD000000100240002002406E
:100B10007047000010B51348006840F0010011490B
:100B2000086008464068104908400E494860084679
:100B300000680E4908400B4908600846006820F428
:100B4000802008600846406820F4FE0048604FF4AA
:100B50001F008860FFF767FF4FF0006004490860DE
:100B600010BD0000001002400000FFF8FFFFF6FE7D
:100B700008ED00E000BFFEE71CB5FFF705FEFFF73C
:100B80006EFC26A201210846FFF707FFFFF762FC73
:100B90002349087002230846027804210120FFF748
:100BA0009FFE39E01F482049204B214ACDE9001023
:100BB00020492148FFF7F8FB05231F48B0F9002022
:100BC00001210220FFF7B6FE05231A48B0F90020E4
:100BD00001210320FFF7AEFE05231548B0F90020E0
:100BE00001210420FFF7A6FE05231048B0F90020DC
:100BF00008210220FFF79EFE05230B48B0F90020D4
:100C000008210320FFF796FE05230648B0F90020CF
:100C100008210420FFF78EFEC4E7000049443A0093
:100C2000000000200C0000200A0000200800002026
:100C30000600002004000020020000200000000048
:100C4000000000000000000000000000000000F8AC
:100C500000000000000000333000000000100C060F
:100C6000100C0600000000000000000040C07840AA
:100C7000C0784000043F04043F040400007088FC76
:100C800008300000001820FF211E0000F008F000CE
:100C9000E018000000211C031E211E0000F008883F
:100CA000700000001E2123241927211010160E00A9
:100CB000000000000000000000000000000000E054
:100CC0001804020000000007182040000002041869
:100CD000E00000000040201807000000404080F0C5
:100CE000804040000202010F01020200000000F0FB
:100CF000000000000101011F0101010000000000CF
:100D00000000000080B07000000000000000000043
:100D100000000000000101010101010100000000CC
:100D20000000000000303000000000000000000063
:100D300080601804006018060100000000E0100840
:100D40000810E000000F102020100F00001010F815
:100D5000000000000020203F202000000070080854
:100D600008887000003028242221300000300888D4
:100D7000884830000018202020110E000000C020FC
:100D800010F8000000070424243F240000F808881D
:100D9000880808000019212020110E0000E01088AA
:100DA00088180000000F112020110E0000380808DC
:100DB000C83808000000003F0000000000708808EC
:100DC00008887000001C222121221C0000E010086D
:100DD0000810E0000000312222110F00000000C0C6
:100DE000C000000000000030300000000000008063
:100DF0000000000000008060000000000000804053
:100E0000201008000001020408102000404040406B
:100E100040404000040404040404040000081020BE
:100E20004080000000201008040201000070480803
:100E30000808F0000000003036010000C030C8286B
:100E4000E810E0000718272423140B000000C03826
:100E5000E0000000203C23020227382008F88888A0
:100E600088700000203F202020110E00C0300808AC
:100E700008083800071820202010080008F8080883
:100E80000810E000203F202020100F0008F888887C
:100E9000E8081000203F20202320180008F8888848
:100EA000E8081000203F200003000000C0300808C0
:100EB0000838000007182020221E020008F8080049
:100EC0000008F808203F210101213F20000808F810
:100ED000080800000020203F202000000000080833
:100EE000F8080800C08080807F00000008F888C0F3
:100EF00028180800203F20012638200008F80800A4
:100F000000000000203F20202020300008F8F800DA
:100F1000F8F80800203F003F003F200008F830C0EC
:100F20000008F808203F200007183F00E0100808DC
:100F30000810E0000F10202020100F0008F808080B
:100F40000808F000203F210101010000E01008081E
:100F50000810E0000F18242438504F0008F8888843
:100F600088887000203F2000030C30200070880823
:100F7000080838000038202121221C00180808F831
:100F8000080818000000203F2000000008F80800B2
:100F90000008F808001F202020201F000878880083
:100FA00000C83808000007380E010000F80800F8F3
:100FB0000008F800033C0700073C0300081868809D
:100FC0008068180820302C03032C30200838C80013
:100FD000C83808000000203F200000001008080862
:100FE000C83808002038262120201800000000FE04
:100FF000020202000000007F40404000000C30C0B0
:1010000000000000000000010638C00000020202DB
:10101000FE000000004040407F000000000004028D
:1010200002020400000000000000000000000000B8
:1010300000000000808080808080808000020204A8
:1010400000000000000000000000000000008080A0
:10105000808000000019242222223F2008F800800E
:1010600080000000003F112020110E0000000080D1
:1010700080800000000E1120202011000000008060
:101080008088F800000E112020103F200000808092
:1010900080800000001F222222221300008080F0A6
:1010A000888888180020203F2020000000008080D1
:1010B00080808000006B94949493600008F8008016
:1010C00080800000203F210000203F200080989871
:1010D000000000000020203F2020000000000080D1
:1010E0009898000000C08080807F000008F8000011
:1010F00080808000203F24022D302000000808F866
:10110000000000000020203F202000008080808020
:1011100080808000203F20003F20003F80800080B2
:1011200080800000203F210000203F2000008080C0
:1011300080800000001F202020201F008080008071
:101140008000000080FFA12020110E000000008020
:1011500080808000000E112020A0FF808080800011
:101160008080800020203F2120000100000080803E
:10117000808080000033242424241900008080E033
:10118000808000000000001F202000008080000000
:1011900000808000001F202020103F2080808000E1
:1011A0000080808000010E300806010080800080F1
:1011B000008080800F300C030C300F000080800016
:1011C000808080000020312E0E3120008080800041
:1011D0000080808080818E701806010000808080F1
:1011E000808080000021302C22213000000000008F
:1011F000807C020200000000003F40400000000030
:10120000FF00000000000000FF0000000002027C60
:10121000800000000040403F000000000006010187
:101220000202040400000000000000004C1200084C
:101230000000002010000000280100085C120008D7
:1012400010000020600600004401000800000000BB
:0C12500000000000000000000000000092
:04000005080000ED02
:00000001FF
