:020000040800F2
:1000000068060020890100083D0500080904000871
:100010000D0400083B0200088D10000800000000DD
:10002000000000000000000000000000090A0008B5
:100030003F02000800000000C5090008F50A00089A
:10004000A3010008A3010008A3010008A301000800
:10005000A3010008A3010008A3010008A3010008F0
:10006000A3010008A3010008A3010008A3010008E0
:10007000A3010008A3010008A3010008A3010008D0
:10008000A3010008A3010008A3010008A3010008C0
:10009000A3010008A3010008A3010008A3010008B0
:1000A000A3010008710C0008A3010008A3010008C7
:1000B000A3010008A3010008A3010008A301000890
:1000C000A3010008A3010008A3010008A301000880
:1000D000A3010008A3010008A3010008A301000870
:1000E000A3010008A3010008A301000800F002F822
:1000F00000F03AF80AA090E8000C82448344AAF188
:100100000107DA4501D100F02FF8AFF2090EBAE885
:100110000F0013F0010F18BFFB1A43F0010318473B
:100120006818000088180000103A24BF78C878C109
:10013000FAD8520724BF30C830C144BF04680C60ED
:10014000704700000023002400250026103A28BF35
:1001500078C1FBD8520728BF30C148BF0B60704739
:100160001FB51FBD10B510BD00F031F81146FFF7E7
:10017000F7FF00F08DFF00F04FF803B4FFF7F2FF38
:1001800003BC00F053F800000948804709480047C5
:10019000FEE7FEE7FEE7FEE7FEE7FEE7FEE7FEE737
:1001A000FEE7FEE704480549054A064B7047000094
:1001B000F90A0008ED000008680000206806002029
:1001C000680200206802002070477047704775463B
:1001D00000F028F8AE4605006946534620F00700B7
:1001E000854618B020B5FFF7DDFFBDE820404FF091
:1001F00000064FF000074FF000084FF0000B21F011
:100200000701AC46ACE8C009ACE8C009ACE8C009DD
:10021000ACE8C0098D4670470446AFF30080204625
:10022000FFF7ABFF00487047040000200149182089
:10023000ABBEFEE726000200704700BFFEE7704736
:1002400000B587B00121022000F0BEFB012104208F
:1002500000F0CAFB48208DF81B00C020ADF8180044
:1002600003208DF81A0006A91B4800F039F84FF654
:10027000FF70ADF810000020ADF80C008DF81400F0
:1002800003A9164800F072FE0121144800F00CFD8D
:10029000684600F050FD0020ADF800000120ADF8E8
:1002A000080069460D4800F007FE0420ADF8000084
:1002B0000120ADF808006946084800F0FDFD002364
:1002C0001A460321054800F001FD0121034800F012
:1002D000F1FC07B000BD0000000801400004004030
:1002E0002DE9F041024600250026002000230024CD
:1002F000002791F803C00CF00F0591F803C00CF033
:10030000100CBCF1000F03D091F802C04CEA0505B7
:1003100091F800C0BCF1000F31D0146800202BE030
:100320004FF0010C0CFA00F3B1F800C00CEA030620
:100330009E4220D183004FF00F0C0CFA03F7BC4310
:1003400005FA03FC4CEA040491F803C0BCF1280F41
:1003500006D14FF0010C0CFA00FCC2F814C00AE000
:1003600091F803C0BCF1480F05D14FF0010C0CFA15
:1003700000FCC2F810C0401C0828D1D31460B1F8AA
:1003800000C0BCF1FF0F34DD546800202EE000F106
:10039000080C4FF0010808FA0CF3B1F800C00CEAA1
:1003A00003069E4221D183004FF00F0C0CFA03F795
:1003B000BC4305FA03FC4CEA040491F803C0BCF109
:1003C000280F05D100F1080C08FA0CF8C2F81480C7
:1003D00091F803C0BCF1480F07D100F1080C4FF0B1
:1003E000010808FA0CF8C2F81080401C0828CED387
:1003F0005460BDE8F08141617047016170470AB106
:10040000016100E04161704700BFFEE700BFFEE709
:1004100008B50121082000F0E7FA0121042000F0CE
:10042000E3FA10208DF8030003208DF8020001206C
:10043000ADF8000069461548FFF752FF0220ADF8FD
:10044000000069461148FFF74BFF4FF48070ADF88C
:10045000000069460D48FFF743FF4FF40070ADF808
:10046000000069460948FFF73BFF1020ADF8000087
:1004700069460748FFF734FF00BF10210448FFF723
:10048000BCFF00BF00F036FA08BD0000000C0140C0
:100490000008014010B50446002C0FDB00BF01210D
:1004A0000F48FFF7A8FF00BF00BF02210C48FFF76D
:1004B000A4FF00BFA0B200F075FA0FE000BF012159
:1004C0000748FFF79AFF00BF00BF02210448FFF76B
:1004D00092FF00BF614288B200F064FA10BD0000D4
:1004E000000C014010B50446002C11DB00BF4FF496
:1004F00080711148FFF77FFF00BF00BF4FF400710C
:100500000D48FFF77AFF00BFA0B200F053FA11E0E8
:1005100000BF4FF480710848FFF76FFF00BF00BFB6
:100520004FF400710448FFF766FF00BF614288B2D4
:1005300000F040FA10BD0000000C014070470000C0
:1005400070B5002100230F22C47804B3154C246831
:1005500004F4E064C4F5E064210AC1F10403CA4074
:10056000447804FA03F184781440214309010E4CC5
:100570000678A155047804F01F050124AC400578E5
:100580006D11AD0005F1E025C5F8004109E00478E2
:1005900004F01F050124AC40044D0678761145F89F
:1005A000264070BD0CED00E000E400E080E100E0DA
:1005B00002490143024A1160704700000000FA0539
:1005C0000CED00E070B500240EE00021204600F0A4
:1005D000F0F8002504E0002000F07CF9681CC5B2AA
:1005E000802DF8DB601CC4B2082CEEDB70BD00006F
:1005F00008B50121082000F0F7F914208DF8030058
:1006000003208DF802004FF48060ADF800006946C9
:100610000A48FFF765FE4FF40060ADF80000694638
:100620000648FFF75DFE012291020448FFF7E7FE4E
:100630000122D1020148FFF7E2FE08BD000C014093
:1006400070B50546002415E08020204100EA05022F
:100650004FF400610E48FFF7D2FE012291020C48D0
:10066000FFF7CDFE00224FF480610948FFF7C7FE77
:10067000601CC4B2082CE7DB012291020448FFF79A
:10068000BEFE00224FF480610148FFF7B8FE70BD46
:10069000000C014010B50122D1020A48FFF7AFFE5D
:1006A000012291020748FFF7AAFE00224FF40061E1
:1006B0000448FFF7A4FE00224FF480610148FFF7D1
:1006C0009EFE10BD000C014010B500224FF40061E9
:1006D0000648FFF794FE012291020448FFF78FFEBF
:1006E0000122D1020148FFF78AFE10BD000C014033
:1006F00070B5002406E0002500E06D1CB5F57A7F9A
:10070000FBD3641CB4F57A7FF5D3FFF771FFAE20FD
:1007100000F0D0F8D52000F0CDF8802000F0CAF825
:10072000A82000F0C7F83F2000F0C4F8D32000F064
:10073000C1F8002000F0BEF8402000F0BBF8A12076
:1007400000F0B8F8C82000F0B5F8DA2000F0B2F8F0
:10075000122000F0AFF8812000F0ACF8CF2000F0BC
:10076000A9F8D92000F0A6F8F12000F0A3F8DB20CA
:1007700000F0A0F8302000F09DF8A42000F09AF8D6
:10078000A62000F097F88D2000F094F8142000F0D7
:1007900091F8AF2000F08EF8FFF714FF70BD10B590
:1007A0000246012000E050430B00A1F10101FAD103
:1007B00010BD70B505460C4645F0B00000F07AF863
:1007C000102141EA141000F075F804F00F0000F059
:1007D00071F870BD2DE9F04105460E461746721EB0
:1007E000D206110E6A1E5206100EFFF7E2FF002419
:1007F00009E0A7F12001134A02EB0111085D00F0A6
:1008000069F8601CC4B2082CF3DB721ED206110E0C
:100810006A1E012303EB4202D0B2FFF7CAFF002495
:100820000BE0A7F12001074A02EB011204F10801D5
:10083000505C00F04FF8601CC4B2082CF1DBBDE83E
:10084000F0810000981300082DE9F04780460E461D
:1008500017461D46002415E0281B411E0A20FFF7FD
:100860009EFFB7FBF0F00A21B0FBF1F201FB120092
:1008700000F130093019C1B24A464046FFF7AAFFDD
:10088000601CC4B2AC42E7DBBDE8F0872DE9F04163
:1008900007460E461546002407E02A5D3019C1B20E
:1008A0003846FFF797FF601CC4B2285D0028F4D1DA
:1008B000BDE8F08110B50446FFF7ECFE7820FFF7A5
:1008C000BFFE0020FFF7BCFE2046FFF7B9FEFFF792
:1008D000FBFE10BD10B50446FFF7DCFE7820FFF7E5
:1008E000AFFE4020FFF7ACFE2046FFF7A9FEFFF762
:1008F000EBFE10BD00B589B00121084600F064F898
:100900000121042000F070F818208DF82300032046
:100910008DF822000120ADF8200008A92048FFF73B
:10092000DFFC0220ADF8200008A91D48FFF7D8FC25
:100930004FF0804000F011FA0020ADF81A00ADF839
:1009400016006320ADF8180040F2CF20ADF8140077
:1009500000208DF81C0005A94FF0804000F006FB38
:1009600001A800F09FFA6020ADF804000020ADF867
:100970000C000120ADF806000020ADF80A0001A926
:100980004FF0804000F0F0F901A94FF0804000F0F6
:1009900037FA0121880700F08DF909B000BD000089
:1009A0000008014010B5044621464FF0804000F099
:1009B000C1FA10BD10B5044621464FF0804000F04A
:1009C000BBFA10BD7047000029B1064AD269024344
:1009D000044BDA6104E0034AD2698243014BDA61D5
:1009E000704700000010024029B1064A9269024394
:1009F000044B9A6104E0034A92698243014B9A6175
:100A00007047000000100240704710B500F002F877
:100A100010BD00000CB50020019000903348006824
:100A200040F480303149086000BF3048006800F46D
:100A3000003000900198401C0190009818B901986E
:100A4000B0F5A06FF1D12948006800F4003010B172
:100A50000120009001E0002000900098012843D17F
:100A60002348006840F010002149086008460068EB
:100A700020F0030008600846006840F002000860AB
:100A80001A48406819494860084640684860084666
:100A9000406840F4806048600846406820F47C105C
:100AA00048600846406840F4E8104860084600681E
:100AB00040F08070086000BF0C48006800F00070D3
:100AC0000028F9D00948406820F003000749486031
:100AD0000846406840F00200486000BF0348406894
:100AE00000F00C000828F9D10CBD000000100240F5
:100AF000002002407047000010B51348006840F025
:100B000001001149086008464068104908400E4934
:100B10004860084600680E4908400B4908600846CE
:100B2000006820F4802008600846406820F4FE0039
:100B300048604FF41F008860FFF767FF4FF00060C8
:100B40000449086010BD0000001002400000FFF8DA
:100B5000FFFFF6FE08ED00E0F0B50C46154600225A
:100B60000021068C4FF6FE773E400684028B018CF6
:100B70004FF60C7632407E1C06EA03162E433243B3
:100B8000104EB0420ED0104EB0420BD0B0F1804F9C
:100B900008D00E4EB04205D00D4EB04202D00D4EE0
:100BA000B04206D14FF6FD76314044F001063143A4
:100BB00005E04FF6F576314044F0010631430283FB
:100BC0000184F0BD002C01400034014000040040CD
:100BD00000080040000C0040F0B50C46154600220D
:100BE00000210026078C4FF6EF7C07EA0C070784EC
:100BF000028B018C4FF6FF7707EA041640F6FF4799
:100C00003A404FF6FF7707EA03373A434FF6FF774C
:100C100007EA05273A43114FB8420ED0104FB842A9
:100C20000BD0B0F1804F08D00E4FB84205D00E4F18
:100C3000B84202D00D4FB84206D14FF6DF773940A7
:100C400046F01007394305E04FF65F77394044F02E
:100C50001007394302830184F0BD0000002C0140DD
:100C6000003401400004004000080040000C004037
:100C700010B50021094800F04DF801280CD10848B2
:100C800000F045F8074908800021054800F056F9B2
:100C90000021024800F00BF810BD0000002C0140BC
:100CA0000004004000000020CA4302827047CA438B
:100CB0000282704721B1028842F00102028004E002
:100CC00002884FF6FE731A4002807047F0B50C465A
:100CD00015461E460021002200230189028B038C49
:100CE0004FF6F877394021434FF6FC473A4040F23F
:100CF00001173A434FF6DD773B404FF6FF7707EA9F
:100D000006172F433B43018102830384F0BD014654
:100D1000888C704730B50246002000230024158AD5
:100D200005EA0103958905EA010413B10CB101201C
:100D300000E0002030BD0021018041800121818040
:100D40000021C180018170471AB183890B438381DF
:100D500002E083898B438381704701894FF6F872E3
:100D6000114001817047000070B50024002200236B
:100D7000058C4FF6FE7635400584028C8388048B03
:100D80004FF68F752C40B51E2C400D882C43751ED8
:100D90002A400D892A434D882A43144DA8420BD07E
:100DA000134DA84208D0134DA84205D0124DA842B9
:100DB00002D0124DA84213D14FF6F7752A404D8943
:100DC0002A434FF6FB752A408D882A434FF6FF656C
:100DD0002B404FF6FF552B408D892B43CD892B435C
:100DE00083800483CD888586028470BD002C0140F9
:100DF00000340140004001400044014000480140EF
:100E000070B5002400220023058C4FF6EF763540A4
:100E10000584028C8388048B48F6FF752C404FF6BE
:100E2000FF452C400D884FF6FF7606EA05252C433A
:100E30004FF6DF752A400D8906EA05152A434D88CD
:100E400006EA05152A43154DA84202D0144DA842C2
:100E50001DD14FF67F752A404D894FF6FF7606EA81
:100E600005152A434FF6BF752A408D8806EA0515F9
:100E70002A434FF6FF352B404FF2FF752B408D89EB
:100E800006EA85052B43CD8906EA85052B43838039
:100E90000483CD880587028470BD0000002C0140CA
:100EA000003401400021018041808180C1800181A6
:100EB00041818181C18170472DE9F04105460C4691
:100EC00000260127608808B9022600E00026A088D5
:100ED000012801D1022700E001272088A0B9238939
:100EE000A28861882846FFF737FEE188284600F08F
:100EF00027F823893A4631462846FFF76DFEE188F8
:100F0000284600F026F813E02389A2886188284645
:100F1000FFF762FEE188284600F01BF823893A4675
:100F200031462846FFF718FEE188284600F008F809
:100F3000BDE8F081818670470187704781847047E2
:100F4000028B4FF6F3731A400283028B0A4302832B
:100F50007047028B4FF2FF331A400283028B4FF629
:100F6000FF7303EA01231A430283704700220288B9
:100F70001D4B98420ED01D4B98420BD0B0F1804FC4
:100F800008D01B4B984205D01A4B984202D01A4BFE
:100F9000984204D14FF68F731A404B881A43174B6F
:100FA000984207D0164B984204D04FF6FF431A40A0
:100FB000CB881A4302808B8883850B8803850A4B74
:100FC00098420BD0094B984208D00E4B984205D05E
:100FD0000D4B984202D00D4B984201D10B7A0386FB
:100FE0000123838270470000002C0140003401403F
:100FF0000004004000080040000C004000100040C9
:1010000000140040004001400044014000480140FD
:101010001FB50121C802FFF7E7FC1B48FFF79DFE43
:101020000020ADF80A00ADF8060041F61F40ADF80B
:10103000040041F28730ADF8080000208DF80C0064
:1010400001A91148FFF792FF01210F48FFF72CFE7D
:10105000012211460C48FFF777FE4FF4A060FFF71E
:10106000A7FA19208DF8000001208DF803008DF8F3
:1010700001008DF802006846FFF762FA012102487C
:10108000FFF718FE1FBD0000002C014000BFFEE767
:10109000FFF72EFBFFF7BCF9FFF7D2F8FFF7B8FF19
:1010A0000A20FFF7F7F90A20FFF71CFA22E012499D
:1010B00009884FF47A7201FB02F000F058F80646F6
:1010C0000E4A0F4B00F06AF8044600F023F80D4971
:1010D00008800DA200210120FFF7D8FB0523094855
:1010E000028806210120FFF7AFFB09A20B21012096
:1010F000FFF7CCFBDBE700000000002070685FB367
:101100003B28713F0200002053504545443A0000FF
:101110004D2F53004FEA1153A3F58063D3F11E0303
:10112000A8BFD3F1200C08DB4FF0004242EAC122F5
:1011300052EA505232FA03F0704709420BD4102B96
:10114000C4BF0020704703F5787CBCF1FF3F05D099
:101150004FF0FF3070474FF00000704770B500F05F
:10116000C7F800BF4992248000207047F0E710F0D4
:10117000004248BF4042B0FA80F310FA03F10AD0AF
:10118000C3F11D0303F580634FEA415002EB0352A4
:1011900002EBD12170474FF000007047DFF848C1E3
:1011A00070B51CEA111E1EBF1CEA13159EEA0C0F37
:1011B00095EA0C0F00F06F8081EA030423EA4C13D8
:1011C0004EEAD47E21EA4C1141F4801143F480139D
:1011D000AE44A1FB024CA0FB0365AEF17F7E361945
:1011E00055EB0C05A1FB034C4CF10003A0FB021CCA
:1011F00016EB0C06654153F10003094218BF46F097
:10120000010613F4007F0BD14FEA03314FEA05309A
:10121000340341EA155140EA16506FF003020AE028
:101220004FEAC3214FEAC520F40241EA555140EA92
:1012300056506FF0020202EB2E4201EB025585EA96
:10124000CE710AD05FEA440C18BF24F0004450F17C
:10125000000041F1000120EAD47040F2FE7C6245BA
:1012600000D270BDA84214BF4FF080444FF04044FC
:10127000002E08BF0024BEF1806FA8BFA1F1C041BD
:10128000BDE8704080F282804FF0000001F1C04163
:1012900001F0004170479EEA0C0F0CEA131518BFCD
:1012A00095EA0C0F06D04FF0000081EA030E0EF015
:1012B000004170BD00F01CF88900013E00F007B845
:1012C00000F009B84FEA430C5FEA5C5C08D081EAA1
:1012D000030100F05BB84FEA410C5FEA5C5CF6D1B9
:1012E0004FF00000014970470000FF070000F87F41
:1012F0000EF1020E2EF0030E5EF8046B364205D49A
:10130000012A43EB030515F5001F12D8012841EB14
:10131000010C1CF5001F0CD80ED14FEAD17C15F53D
:10132000001F0CEB4C0C0CF1020C08BF4CEBD37CF7
:1013300004E04FF0080C01E04FEAD37C0CEB4C05C5
:1013400026FA05F606F00706B6F1040C06D20EEBF7
:10135000860CBDE870404CF0010C6047DFE80CF0F3
:10136000090B02024FF000414FF00000A1F50021EF
:1013700070BD19461046012851EB010418BFD4F581
:10138000001484BF002001F0004170BD0808A0F5E2
:1013900000114FEA3101704700000000000000001A
:1013A0000000000000000000000000F80000000045
:1013B000000000333000000000100C06100C060086
:1013C000000000000000000040C07840C0784000ED
:1013D000043F04043F040400007088FC083000004F
:1013E000001820FF211E0000F008F000E0180000A7
:1013F00000211C031E211E0000F008887000000060
:101400001E2123241927211010160E0000000000B1
:101410000000000000000000000000E018040200CE
:10142000000000071820400000020418E00000003F
:101430000040201807000000404080F0804040003D
:101440000202010F01020200000000F00000000093
:101450000101011F01010100000000000000000067
:1014600080B07000000000000000000000000000DC
:101470000001010101010101000000000000000065
:101480000030300000000000000000008060180400
:10149000006018060100000000E010080810E000DD
:1014A000000F102020100F00001010F800000000A6
:1014B0000020203F202000000070080808887000ED
:1014C000003028242221300000300888884830006D
:1014D0000018202020110E000000C02010F800008D
:1014E00000070424243F240000F808888808080026
:1014F0000019212020110E0000E01088881800003B
:10150000000F112020110E0000380808C83808000C
:101510000000003F0000000000708808088870008C
:10152000001C222121221C0000E010080810E0000D
:101530000000312222110F00000000C0C000000096
:1015400000000030300000000000008000000000BB
:1015500000008060000000000000804020100800B3
:10156000000102040810200040404040404040007C
:101570000404040404040400000810204080000057
:101580000020100804020100007048080808F0005C
:101590000000003036010000C030C828E810E0002C
:1015A0000718272423140B000000C038E0000000B7
:1015B000203C23020227382008F888888870000021
:1015C000203F202020110E00C030080808083800F5
:1015D000071820202010080008F808080810E0006C
:1015E000203F202020100F0008F88888E80810000D
:1015F000203F20202320180008F88888E8081000E1
:10160000203F200003000000C03008080838000018
:1016100007182020221E020008F808000008F80819
:10162000203F210101213F20000808F808080000A0
:101630000020203F2020000000000808F8080800D3
:10164000C08080807F00000008F888C0281808004B
:10165000203F20012638200008F808000000000084
:10166000203F20202020300008F8F800F8F808007B
:10167000203F003F003F200008F830C00008F80875
:10168000203F200007183F00E01008080810E00085
:101690000F10202020100F0008F808080808F0009C
:1016A000203F210101010000E01008080810E000BF
:1016B0000F18242438504F0008F888888888700054
:1016C000203F2000030C30200070880808083800F4
:1016D0000038202121221C00180808F808081800EA
:1016E0000000203F2000000008F808000008F8086B
:1016F000001F202020201F000878880000C838081C
:10170000000007380E010000F80800F80008F80093
:10171000033C0700073C030008186880806818082D
:1017200020302C03032C30200838C800C8380800AB
:101730000000203F2000000010080808C8380800FA
:101740002038262120201800000000FE020202009E
:101750000000007F40404000000C30C0000000004E
:10176000000000010638C00000020202FE00000076
:10177000004040407F00000000000402020204001C
:101780000000000000000000000000000000000059
:101790008080808080808080000202040000000041
:1017A0000000000000000000000080808080000039
:1017B0000019242222223F2008F800808000000027
:1017C000003F112020110E000000008080800000EA
:1017D000000E112020201100000000808088F800F9
:1017E000000E112020103F2000008080808000002B
:1017F000001F222222221300008080F0888888188F
:101800000020203F20200000000080808080800099
:10181000006B94949493600008F80080808000002E
:10182000203F210000203F20008098980000000009
:101830000020203F20200000000000809898000039
:1018400000C08080807F000008F800008080800059
:10185000203F24022D302000000808F8000000007E
:101860000020203F20200000808080808080800039
:10187000203F20003F20003F8080008080800000CB
:10188000203F210000203F20000080808080000059
:10189000001F202020201F0080800080800000008A
:1018A00080FFA12020110E000000008080808000B9
:1018B000000E112020A0FF808080800080808000AA
:1018C00020203F21200001000000808080808000D7
:1018D0000033242424241900008080E0808000004C
:1018E0000000001F20200000808000000080800099
:1018F000001F202020103F208080800000808080FA
:1019000000010E3008060100808000800080808089
:101910000F300C030C300F000080800080808000AE
:101920000020312E0E3120008080800000808080D9
:1019300080818E7018060100008080808080800089
:101940000021302C2221300000000000807C0202A7
:1019500000000000003F404000000000FF000000C9
:1019600000000000FF0000000002027C8000000078
:101970000040403F00000000000601010202040494
:101980000000000000000000A8190008000000206E
:101990000400000028010008AC1900080400002021
:0C19A00064060000440100080000000084
:04000005080000ED02
:00000001FF
