:020000040800F2
:10000000600600206D010008790400084303000821
:10001000470300081F020008010900080000000053
:100020000000000000000000000000009105000832
:1000300023020008000000004D0500087D060008AE
:100040008701000887010008870100088701000870
:100050008701000887010008870100088701000860
:100060008701000887010008870100088701000850
:100070008701000887010008870100088701000840
:100080008701000887010008870100088701000830
:100090008701000887010008870100088701000820
:1000A0008701000887010008870100088701000810
:1000B0008701000887010008870100088701000800
:1000C00087010008870100088701000887010008F0
:1000D00087010008870100088701000887010008E0
:1000E00087010008870100088701000800F002F876
:1000F00000F02CF80AA090E8000C82448344AAF196
:100100000107DA4501D100F021F8AFF2090EBAE893
:100110000F0013F0010F18BFFB1A43F0010318473B
:10012000F80700000808000000230024002500262E
:10013000103A28BF78C1FBD8520728BF30C148BF4A
:100140000B6070471FB51FBD10B510BD00F031F832
:100150001146FFF7F7FF00F0D5FB00F04FF803B4AE
:10016000FFF7F2FF03BC00F053F800000948804796
:1001700009480047FEE7FEE7FEE7FEE7FEE7FEE789
:10018000FEE7FEE7FEE7FEE704480549054A064BA1
:100190007047000081060008ED00000860000020A4
:1001A0006006002060020020600200207047704757
:1001B0007047754600F028F8AE460500694653467C
:1001C00020F00700854618B020B5FFF7DDFFBDE839
:1001D00020404FF000064FF000074FF000084FF0AE
:1001E000000B21F00701AC46ACE8C009ACE8C0093F
:1001F000ACE8C009ACE8C0098D4670470446AFF3CF
:1002000000802046FFF7ABFF004870470000002049
:1002100001491820ABBEFEE726000200704700BF70
:10022000FEE770472DE9F041024600250026002038
:1002300000230024002791F803C00CF00F0591F86B
:1002400003C00CF0100CBCF1000F03D091F802C0F9
:100250004CEA050591F800C0BCF1000F31D01468DC
:1002600000202BE04FF0010C0CFA00F3B1F800C0B5
:100270000CEA03069E4220D183004FF00F0C0CFACB
:1002800003F7BC4305FA03FC4CEA040491F803C0ED
:10029000BCF1280F06D14FF0010C0CFA00FCC2F89B
:1002A00014C00AE091F803C0BCF1480F05D14FF02B
:1002B000010C0CFA00FCC2F810C0401C0828D1D375
:1002C0001460B1F800C0BCF1FF0F34DD54680020A9
:1002D0002EE000F1080C4FF0010808FA0CF3B1F819
:1002E00000C00CEA03069E4221D183004FF00F0CA0
:1002F0000CFA03F7BC4305FA03FC4CEA040491F83A
:1003000003C0BCF1280F05D100F1080C08FA0CF865
:10031000C2F8148091F803C0BCF1480F07D100F176
:10032000080C4FF0010808FA0CF8C2F81080401CC5
:100330000828CED35460BDE8F08141617047016167
:10034000704700BFFEE700BFFEE7000008B50121CF
:10035000082000F00DF90121042000F009F9102017
:100360008DF8030003208DF802000120ADF8000095
:1003700069461548FFF756FF0220ADF800006946B0
:100380001148FFF74FFF4FF48070ADF80000694649
:100390000D48FFF747FF4FF40070ADF800006946C5
:1003A0000948FFF73FFF1020ADF8000069460748F5
:1003B000FFF738FF00BF10210448FFF7C0FF00BF60
:1003C00000F05CF808BD0000000C0140000801408E
:1003D00010B50446002C0FDB00BF01210F48FFF7CA
:1003E000ACFF00BF00BF02210C48FFF7A8FF00BF11
:1003F000A0B200F09BF80FE000BF01210748FFF713
:100400009EFF00BF00BF02210448FFF796FF00BF18
:10041000614288B200F08AF810BD0000000C014073
:1004200010B50446002C11DB00BF4FF48071114859
:10043000FFF783FF00BF00BF4FF400710D48FFF7C7
:100440007EFF00BFA0B200F079F811E000BF4FF4CA
:1004500080710848FFF773FF00BF00BF4FF40071C1
:100460000448FFF76AFF00BF614288B200F066F8F7
:1004700010BD0000000C01407047000000B589B0BD
:100480000121084600F064F80121042000F070F812
:1004900018208DF8230003208DF822000120ADF8EC
:1004A000200008A92048FFF7BDFE0220ADF820007B
:1004B00008A91D48FFF7B6FE4FF0804000F01CF978
:1004C0000020ADF81A00ADF816006320ADF8180052
:1004D00040F2CF20ADF8140000208DF81C0005A9D3
:1004E0004FF0804000F0BAF901A800F0A9F96020AF
:1004F000ADF804000020ADF80C000120ADF80600B6
:100500000020ADF80A0001A94FF0804000F0FAF891
:1005100001A94FF0804000F041F90121880700F067
:10052000DFF809B000BD00000008014010B5044626
:1005300021464FF0804000F08DF910BD10B5044603
:1005400021464FF0804000F087F910BD7047000051
:1005500029B1064AD2690243044BDA6104E0034A36
:10056000D2698243014BDA617047000000100240FB
:1005700029B1064A92690243044B9A6104E0034A96
:1005800092698243014B9A6170470000001002405B
:10059000704710B500F002F810BD00000CB5002047
:1005A000019000903348006840F480303149086081
:1005B00000BF3048006800F4003000900198401CF3
:1005C0000190009818B90198B0F5A06FF1D12948B1
:1005D000006800F4003010B10120009001E000201C
:1005E00000900098012843D12348006840F0100093
:1005F000214908600846006820F0030008600846AA
:10060000006840F0020008601A48406819494860D4
:100610000846406848600846406840F4806048608A
:100620000846406820F47C1048600846406840F462
:10063000E81048600846006840F08070086000BF1D
:100640000C48006800F000700028F9D009484068A4
:1006500020F00300074948600846406840F0020067
:10066000486000BF0348406800F00C000828F9D13A
:100670000CBD000000100240002002407047000046
:1006800010B51348006840F00100114908600846A1
:100690004068104908400E494860084600680E4905
:1006A00008400B4908600846006820F48020086074
:1006B0000846406820F4FE0048604FF41F00886040
:1006C000FFF767FF4FF000600449086010BD0000AD
:1006D000001002400000FFF8FFFFF6FE08ED00E00A
:1006E00021B1028842F00102028004E002884FF644
:1006F000FE731A400280704701894FF6F87211406C
:100700000181704770B5002400220023058C4FF64C
:10071000FE7635400584028C8388048B4FF68F75F6
:100720002C40B51E2C400D882C43751E2A400D8987
:100730002A434D882A43144DA8420BD0134DA8429A
:1007400008D0134DA84205D0124DA84202D0124D38
:10075000A84213D14FF6F7752A404D892A434FF628
:10076000FB752A408D882A434FF6FF652B404FF6D4
:10077000FF552B408D892B43CD892B4383800483E8
:10078000CD888586028470BD002C01400034014074
:1007900000400140004401400048014070B5002481
:1007A00000220023058C4FF6EF7635400584028C3D
:1007B0008388048B48F6FF752C404FF6FF452C408C
:1007C0000D884FF6FF7606EA05252C434FF6DF75B8
:1007D0002A400D8906EA05152A434D8806EA0515C3
:1007E0002A43154DA84202D0144DA8421DD14FF600
:1007F0007F752A404D894FF6FF7606EA05152A4394
:100800004FF6BF752A408D8806EA05152A434FF634
:10081000FF352B404FF2FF752B408D8906EA850589
:100820002B43CD8906EA85052B4383800483CD883D
:100830000587028470BD0000002C01400034014097
:100840000021018041808180C180018141818181BD
:10085000C1817047818670470187704700220288F6
:100860001D4B98420ED01D4B98420BD0B0F1804FDB
:1008700008D01B4B984205D01A4B984202D01A4B15
:10088000984204D14FF68F731A404B881A43174B86
:10089000984207D0164B984204D04FF6FF431A40B7
:1008A000CB881A4302808B8883850B8803850A4B8B
:1008B00098420BD0094B984208D00E4B984205D075
:1008C0000D4B984202D00D4B984201D10B7A038612
:1008D0000123838270470000002C01400034014056
:1008E0000004004000080040000C004000100040E0
:1008F0000014004000400140004401400048014015
:1009000000BFFEE7FFF722FD3220FFF761FD142054
:10091000FFF786FD00BFFEE7280900080000002061
:08092000600600002801000838
:04000005080000ED02
:00000001FF
