:020000040800F2
:1000000028050020450100084D0100084F010008A7
:1000100051010008530100085501000800000000CC
:100020000000000000000000000000005701000870
:1000300059010008000000005B0100085D01000894
:100040005F0100085F0100085F0100085F01000810
:100050005F0100085F0100085F0100085F01000800
:100060005F0100085F0100085F0100085F010008F0
:100070005F0100085F0100085F0100085F010008E0
:100080005F0100085F0100085F0100085F010008D0
:100090005F0100085F0100085F0100085F010008C0
:1000A0005F0100085F0100085F0100085F010008B0
:1000B0005F0100085F0100085F0100085F010008A0
:1000C0005F0100085F0100085F0100085F01000890
:1000D0005F010008650800085F0100085F01000873
:1000E0005F0100085F0100085F0100085F01000870
:1000F0005F0100085F0100085F0100085F01000860
:100100005F0100085F0100085F0100085F0100084F
:100110005F0100085F0100085F0100085F0100083F
:100120005F0100085F0100085F0100085F0100082F
:10013000DFF80CD000F02EF800480047950C0008BE
:10014000280500200648804706480047FEE7FEE7EE
:10015000FEE7FEE7FEE7FEE7FEE7FEE7FEE7FEE777
:10016000050800083101000830B50B4601460020A3
:100170002022012409E021FA02F59D4205D303FA69
:1001800002F5491B04FA02F52844151EA2F10102EA
:10019000F1DC30BD064C074D06E0E06840F001039D
:1001A00094E8070098471034AC42F6D3FFF7C4FF39
:1001B000CC0C0008EC0C00082DE9F04102460025AB
:1001C0000026002000230024002791F803C00CF033
:1001D0000F0591F803C00CF0100CBCF1000F03D018
:1001E00091F802C04CEA050591F800C0BCF1000F7F
:1001F00031D0146800202BE04FF0010C0CFA00F312
:10020000B1F800C00CEA03069E4220D183004FF0F3
:100210000F0C0CFA03F7BC4305FA03FC4CEA040488
:1002200091F803C0BCF1280F06D14FF0010C0CFA75
:1002300000FCC2F814C00AE091F803C0BCF1480FFA
:1002400005D14FF0010C0CFA00FCC2F810C0401CA4
:100250000828D1D31460B1F800C0BCF1FF0F34DD21
:10026000546800202EE000F1080C4FF0010808FA55
:100270000CF3B1F800C00CEA03069E4221D18300C2
:100280004FF00F0C0CFA03F7BC4305FA03FC4CEAE1
:10029000040491F803C0BCF1280F05D100F1080C4B
:1002A00008FA0CF8C2F8148091F803C0BCF1480FAA
:1002B00007D100F1080C4FF0010808FA0CF8C2F859
:1002C0001080401C0828CED35460BDE8F08102465F
:1002D000002093680B400BB1012000E00020704724
:1002E0000161704710B586B004460121042000F07A
:1002F0009BF90121880300F097F94FF40070ADF8E5
:10030000140018208DF8170002208DF8160005A99A
:100310001F48FFF751FF4FF48060ADF81400042030
:100320008DF8170005A91A48FFF746FF0194002031
:10033000ADF80800ADF80A00ADF80C00ADF81000FB
:100340000C20ADF80E0001A9124800F041FB01227B
:1003500040F225510F4800F015FB012240F22441E4
:100360000C4800F00FFB25208DF8000002208DF8CE
:10037000010001208DF802008DF80300684600F0AE
:1003800011F90121034800F0BAFA06B010BD0000CF
:1003900000080140003801400AB1016100E04161FC
:1003A000704710B5752000F01DF810BD10B500F0B5
:1003B0004FF801216B2000F034F800216C2000F090
:1003C00030F80921192000F02CF806211A2000F03D
:1003D00028F818211B2000F024F818211C2000F018
:1003E00020F810BD70B5044600F0A6F8D02000F04B
:1003F0008EF800F057F8204600F089F800F052F827
:1004000000F09AF8D12000F082F800F04BF800F0EC
:1004100058F80546012000F06EF800F09BF82846D9
:1004200070BD70B505460C4600F086F8D02000F08F
:100430006EF800F037F8284600F069F800F032F85E
:10044000204600F064F800F02DF800F083F870BD4D
:1004500008B50121042000F0E7F814208DF803000E
:100460004FF44060ADF8000003208DF802006946AB
:100470000448FFF7A1FE4FF440610248FFF730FF48
:1004800008BD00000008014010B54FF400610448A9
:10049000FFF71DFF04460A2000F0DAFB204610BDDE
:1004A0000008014010B5012000F06EF8012000F0B6
:1004B0005DF8FFF7E9FF0446002000F057F82046FA
:1004C00010BD70B50025012000F05EF800240EE09C
:1004D000012000F04BF8FFF7D7FF012802D1802060
:1004E00020410543002000F041F8601CC4B2082CF4
:1004F000EEDB284670BD10B50446204600F044F8F7
:10050000012000F033F8002000F030F810BD70B585
:10051000054600240DE08021214101EA050000F09C
:1005200033F8012000F022F8002000F01FF8601CD2
:10053000C4B2082CEFDB70BD10B5012000F024F828
:10054000012000F013F8002000F01EF8002000F059
:100550000DF810BD10B5002000F016F8012000F0D5
:1005600005F8012000F010F810BD000010B5044699
:1005700022464FF480510348FFF70EFF0A2000F097
:1005800067FB10BD0008014010B5044622464FF439
:1005900000610348FFF700FF0A2000F059FB10BD7F
:1005A0000008014070B5002100230F22C47804B375
:1005B000154C246804F4E064C4F5E064210AC1F138
:1005C0000403CA40447804FA03F1847814402143B8
:1005D00009010E4C0678A155047804F01F0501248A
:1005E000AC4005786D11AD0005F1E025C5F800417E
:1005F00009E0047804F01F050124AC40044D06789E
:10060000761145F8264070BD0CED00E000E400E0F6
:1006100080E100E002490143024A11607047000096
:100620000000FA050CED00E029B1064A9269024388
:10063000044B9A6104E0034A92698243014B9A6138
:10064000704700000010024030B500210022002455
:1006500000232D4D6D6805F00C0121B1042905D052
:10066000082923D105E0294D056022E0274D0560CA
:100670001FE0254D6D6805F47012234D6D6805F47B
:100680008034022505EB92421CB9214D554305608B
:100690000BE01D4D6D6805F400351DB11C4D554333
:1006A000056002E0194D5543056002E0174D0560F5
:1006B00000BF00BF144D6D6805F0F0010909154D2C
:1006C0006B5C0568DD4045600F4D6D6805F4E061C9
:1006D000090A104D6B5C4568DD4085600A4D6D6808
:1006E00005F46051C90A0B4D6B5C4568DD40C5607F
:1006F000054D6D6805F44041890B074D6B5CC5687D
:10070000B5FBF3F5056130BD0010024000127A0020
:1007100000093D000C0000201C00002010B500F076
:1007200001F810BD0CB5002001900090334800681E
:1007300040F480303149086000BF3048006800F460
:10074000003000900198401C0190009818B9019861
:10075000B0F5A06FF1D12948006800F4003010B165
:100760000120009001E0002000900098012843D172
:100770002348006840F010002149086008460068DE
:1007800020F0030008600846006840F0020008609E
:100790001A48406819494860084640684860084659
:1007A000406840F4806048600846406820F47C104F
:1007B00048600846406840F4E81048600846006811
:1007C00040F08070086000BF0C48006800F00070C6
:1007D0000028F9D00948406820F003000749486024
:1007E0000846406840F00200486000BF0348406887
:1007F00000F00C000828F9D10CBD000000100240E8
:100800000020024010B51348006840F00100114973
:10081000086008464068104908400E49486008468C
:1008200000680E4908400B4908600846006820F43B
:10083000802008600846406820F4FE0048604FF4BD
:100840001F008860FFF76AFF4FF0006004490860EE
:1008500010BD0000001002400000FFF8FFFFF6FE90
:1008600008ED00E010B540F22551194800F060F89D
:10087000012811D140F22551154800F031F81448F3
:1008800000F012F9C4B2134801680068401C114A14
:100890001060114844541AE040F224410C4800F022
:1008A00047F8012813D140F22441094800F018F814
:1008B000074800F0F9F8C4B200200749054A126859
:1008C000885401200549087000200249086010BDC5
:1008D000003801400800002024000020040000200F
:1008E00010B50022002340F66A14A14200D100BFD7
:1008F0000A1201249440A3B2DC43048010BD21B14C
:10090000828942F40052828104E082894DF6FF73AD
:100910001A408281704702460020B1F5007F00D165
:1009200000BF13880B400BB1012000E0002070478E
:1009300070B50246002400230025002040F66A1608
:10094000B14200D100BFC1F3421501F01F030126DF
:1009500006FA03F3012D02D19689334006E0022DF9
:1009600002D1168A334001E0968A33400C120126E8
:1009700006FA04F41688344013B10CB1012000E0EB
:10098000002070BDF0B5034600240026002500209D
:1009900040F66A17B94200D100BF1846C1F34214AD
:1009A00001F01F06012707FA06F5012C01D10C30D2
:1009B00004E0022C01D1103000E014301AB10768B5
:1009C0002F43076002E00768AF430760F0BD0000F7
:1009D0002DE9F04786B005460E460024A24600BF2A
:1009E000A1460027B08900B100BF2F462C8A4CF6E3
:1009F000FF700440F08804432C82AC894EF6F3105B
:100A00000440B08831890843718908430443AC81AC
:100A1000AC8A4FF6FF400440B0890443AC8201A881
:100A2000FFF712FE1F48874202D1DDF810A001E057
:100A3000DDF80CA0A88900F4004040B10AEBCA0020
:100A400000EB0A1031684900B0FBF1F807E00AEB4F
:100A5000CA0000EB0A1031688900B0FBF1F864208D
:100A6000B8FBF0F004012009642101FB1089A8897A
:100A700000F4004040B1322000EBC900B0FBF1F0BF
:100A800000F00700044308E0322000EB0910642165
:100A9000B0FBF1F000F00F0004432C8106B0BDE87C
:100AA000F08700000038014001468888C0F3080044
:100AB0007047C1F308028280704700000FB4054BF5
:100AC00010B503A9044A029800F018F810BC5DF8AC
:100AD00014FB0000710C00082000002002E008C890
:100AE000121F08C1002AFAD170477047002001E0A8
:100AF00001C1121F002AFBD1704700002DE9FF4FF2
:100B000089B09B460446002506E025280BD05A46AE
:100B10000B999047641C6D1C20780028F5D10DB00E
:100B20002846BDE8F08F0027B8460122474900E07B
:100B3000074314F8013F203B02FA03F00842F7D1C3
:100B400020782E2819D114F8010F47F004072A281D
:100B50000ED06FF02F022078A0F1300109290CD8B7
:100B600008EB880102EB410100EB0108641CF2E78D
:100B70000A98641C50F8048B0A9020780028CED084
:100B8000642808D0692806D075281ED05A460B99CB
:100B900090476D1C58E00A994FF00A0901C90A9163
:100BA000002802DA40422D2102E0390504D52B212C
:100BB0008DF82010012103E0F90704D02021F7E788
:100BC0008A4608AE0DE00021FAE70A994FF00A09BB
:100BD00001C90A91F7E74946FFF7C6FA303106F82E
:100BE000011D0028F7D1ADEB060000F120097807C0
:100BF00001D44FF00108C84502DDA8EB090000E070
:100C000000208046002706E008A85A46C05D0B99E0
:100C100090476D1C7F1C5745F6DB04E030205A4698
:100C20000B9990476D1CB8F10001A8F10108F5DCA3
:100C300005E016F8010B5A460B9990476D1CB9F167
:100C40000001A9F10109F4DC641C65E70928010031
:100C5000002106E0082100BF0A00A1F1010399B2BA
:100C6000FAD10200A0F1010398B2F3D1704700005D
:100C700070B504460D46E1B20548FFF71AFF00BF04
:100C800080210348FFF747FE0028F9D0204670BDB9
:100C9000003801404FF4E130FFF724FB4FF4A0602F
:100CA000FFF7B8FCFFF782FBFFF77BFB04490870F6
:100CB0000846017803A0FFF701FF00BFFEE7000030
:100CC0000000002049443A2564000000EC0C0008B4
:100CD0000000002024000000DC0A0008100D0008BD
:100CE0002400002004050000EC0A000800000000B9
:100CF00000000000000000000000000001020304EA
:100D000001020304060708090204060800000000A7
:0400000508000131BD
:00000001FF
