:020000040800F2
:1000000028050020450100084D0100084F010008A7
:1000100051010008530100085501000800000000CC
:100020000000000000000000000000005701000870
:1000300059010008000000005B0100085D01000894
:100040005F0100085F0100085F0100085F01000810
:100050005F0100085F0100085F0100085F01000800
:100060005F0100085F0100085F0100085F010008F0
:100070005F0100085F0100085F0100085F010008E0
:100080005F0100085F0100085F0100085F010008D0
:100090005F0100085F0100085F0100085F010008C0
:1000A0005F0100085F0100085F0100085F010008B0
:1000B0005F0100085F0100085F0100085F010008A0
:1000C0005F0100085F0100085F0100085F01000890
:1000D0005F010008BD0700085F0100085F0100081C
:1000E0005F0100085F0100085F0100085F01000870
:1000F0005F0100085F0100085F0100085F01000860
:100100005F0100085F0100085F0100085F0100084F
:100110005F0100085F0100085F0100085F0100083F
:100120005F0100085F0100085F0100085F0100082F
:10013000DFF80CD000F018F8004800476D0B0008FD
:10014000280500200648804706480047FEE7FEE7EE
:10015000FEE7FEE7FEE7FEE7FEE7FEE7FEE7FEE777
:100160005D07000831010008064C074D06E0E06815
:1001700040F0010394E8070098471034AC42F6D3EE
:10018000FFF7DAFFD4100008F410000808B50121C9
:10019000082000F0F5F94FF48070ADF80000102051
:1001A0008DF8030002208DF802006946044800F033
:1001B00009F84FF48071024800F0DDF808BD000036
:1001C000000C01402DE9F0410246002500260020E8
:1001D00000230024002791F803C00CF00F0591F8CC
:1001E00003C00CF0100CBCF1000F03D091F802C05A
:1001F0004CEA050591F800C0BCF1000F31D014683D
:1002000000202BE04FF0010C0CFA00F3B1F800C015
:100210000CEA03069E4220D183004FF00F0C0CFA2B
:1002200003F7BC4305FA03FC4CEA040491F803C04D
:10023000BCF1280F06D14FF0010C0CFA00FCC2F8FB
:1002400014C00AE091F803C0BCF1480F05D14FF08B
:10025000010C0CFA00FCC2F810C0401C0828D1D3D5
:100260001460B1F800C0BCF1FF0F34DD5468002009
:100270002EE000F1080C4FF0010808FA0CF3B1F879
:1002800000C00CEA03069E4221D183004FF00F0C00
:100290000CFA03F7BC4305FA03FC4CEA040491F89A
:1002A00003C0BCF1280F05D100F1080C08FA0CF8C6
:1002B000C2F8148091F803C0BCF1480F07D100F1D7
:1002C000080C4FF0010808FA0CF8C2F81080401C26
:1002D0000828CED35460BDE8F081000008B50121A4
:1002E000442000F04DF91C20ADF8000048208DF8A6
:1002F000030069460648FFF765FF0120ADF80000DE
:1003000028208DF8030069460248FFF75BFF08BD0F
:10031000001801400008014008B50121482000F004
:100320002FF92020ADF8000010208DF803000320E5
:100330008DF8020069460948FFF744FF202107486D
:1003400000F01BF82020ADF8000069460448FFF7D4
:1003500039FF2021024800F010F808BD000C0140D0
:10036000001801400246002093680B400BB10120A9
:1003700000E0002070474161704701617047000054
:1003800010B586B004460121042000F0F9F80121DF
:10039000880300F0F5F84FF40070ADF81400182051
:1003A0008DF8170002208DF8160005A91F48FFF7E9
:1003B00009FF4FF48060ADF8140004208DF8170099
:1003C00005A91A48FFF7FEFE01940020ADF80800C9
:1003D000ADF80A00ADF80C00ADF810000C20ADF837
:1003E0000E0001A9124800F09FFA012240F22551A7
:1003F0000F4800F073FA012240F224410C4800F04B
:100400006DFA25208DF8000002208DF801000120F2
:100410008DF802008DF80300684600F06FF80121A6
:10042000034800F018FA06B010BD000000080140B3
:100430000038014010B5044614B101202C49087061
:100440002B480078002837D010212A48FFF78AFF70
:1004500078B108212748FFF785FF50B104212548CE
:10046000FFF780FF28B101212348FFF77BFF012818
:1004700022D10A2000F058FB00201D4908701021ED
:100480001C48FFF76FFF08B9012010BD082119486B
:10049000FFF768FF08B90220F7E704211548FFF7C6
:1004A00061FF08B90320F0E701211348FFF75AFF65
:1004B00001281BD10420E8E710210E48FFF752FF66
:1004C000012813D108210B48FFF74CFF01280DD15B
:1004D00004210848FFF746FF012807D101210648FB
:1004E000FFF740FF10B90120014908700020CCE758
:1004F00008000020001801400008014070B50021EC
:1005000000230F22C47804B3154C246804F4E0647B
:10051000C4F5E064210AC1F10403CA40447804FA36
:1005200003F184781440214309010E4C0678A1554B
:10053000047804F01F050124AC4005786D11AD006E
:1005400005F1E025C5F8004109E0047804F01F0535
:100550000124AC40044D0678761145F8264070BD64
:100560000CED00E000E400E080E100E0024901431E
:10057000024A1160704700000000FA050CED00E02F
:1005800029B1064A92690243044B9A6104E0034A86
:1005900092698243014B9A6170470000001002404B
:1005A00030B500210022002400232D4D6D6805F098
:1005B0000C0121B1042905D0082923D105E0294DDA
:1005C000056022E0274D05601FE0254D6D6805F4AC
:1005D0007012234D6D6805F48034022505EB9242BC
:1005E0001CB9214D554305600BE01D4D6D6805F4A8
:1005F00000351DB11C4D5543056002E0194D5543B2
:10060000056002E0174D056000BF00BF144D6D6826
:1006100005F0F0010909154D6B5C0568DD4045608A
:100620000F4D6D6805F4E061090A104D6B5C45687B
:10063000DD4085600A4D6D6805F46051C90A0B4DB7
:100640006B5C4568DD40C560054D6D6805F4404153
:10065000890B074D6B5CC568B5FBF3F5056130BDD3
:100660000010024000127A0000093D00090000203D
:100670001900002010B500F001F810BD0CB50020E5
:10068000019000903348006840F4803031490860A0
:1006900000BF3048006800F4003000900198401C12
:1006A0000190009818B90198B0F5A06FF1D12948D0
:1006B000006800F4003010B10120009001E000203B
:1006C00000900098012843D12348006840F01000B2
:1006D000214908600846006820F0030008600846C9
:1006E000006840F0020008601A48406819494860F4
:1006F0000846406848600846406840F480604860AA
:100700000846406820F47C1048600846406840F481
:10071000E81048600846006840F08070086000BF3C
:100720000C48006800F000700028F9D009484068C3
:1007300020F00300074948600846406840F0020086
:10074000486000BF0348406800F00C000828F9D159
:100750000CBD0000001002400020024010B51348FC
:10076000006840F0010011490860084640681049DF
:1007700008400E494860084600680E4908400B4989
:1007800008600846006820F4802008600846406839
:1007900020F4FE0048604FF41F008860FFF76AFFF6
:1007A0004FF000600449086010BD000000100240D6
:1007B0000000FFF8FFFFF6FE08ED00E010B540F284
:1007C0002551194800F060F8012811D140F2255157
:1007D000154800F031F8144800F012F9C4B213487B
:1007E00001680068401C114A1060114844541AE026
:1007F00040F224410C4800F047F8012813D140F2A0
:100800002441094800F018F8074800F0F9F8C4B28C
:1008100000200749054A12688854012005490870DC
:1008200000200249086010BD00380140040000208B
:10083000240000200000002010B50022002340F614
:100840006A14A14200D100BF0A1201249440A3B24D
:10085000DC43048010BD21B1828942F400528281C0
:1008600004E082894DF6FF731A4082817047024688
:100870000020B1F5007F00D100BF13880B400BB101
:10088000012000E00020704770B5024600240023DC
:100890000025002040F66A16B14200D100BFC1F326
:1008A000421501F01F03012606FA03F3012D02D1C0
:1008B0009689334006E0022D02D1168A334001E0CA
:1008C000968A33400C12012606FA04F41688344046
:1008D00013B10CB1012000E0002070BDF0B503465B
:1008E000002400260025002040F66A17B94200D1F6
:1008F00000BF1846C1F3421401F01F06012707FA92
:1009000006F5012C01D10C3004E0022C01D110308D
:1009100000E014301AB107682F43076002E007684F
:10092000AF430760F0BD00002DE9F04786B00546F3
:100930000E460024A24600BFA1460027B08900B1A0
:1009400000BF2F462C8A4CF6FF700440F088044309
:100950002C82AC894EF6F3100440B08831890843EC
:10096000718908430443AC81AC8A4FF6FF400440D0
:10097000B0890443AC8201A8FFF712FE1F488742EA
:1009800002D1DDF810A001E0DDF80CA0A88900F488
:10099000004040B10AEBCA0000EB0A103168490080
:1009A000B0FBF1F807E00AEBCA0000EB0A1031686F
:1009B0008900B0FBF1F86420B8FBF0F004012009D5
:1009C000642101FB1089A88900F4004040B1322065
:1009D00000EBC900B0FBF1F000F00700044308E0B1
:1009E000322000EB09106421B0FBF1F000F00F00A1
:1009F00004432C8106B0BDE8F087000000380140B8
:100A000001468888C0F308007047C1F3080282805D
:100A1000704700000FB4054B10B503A9044A0298B3
:100A200000F017F810BC5DF814FB0000490B00083B
:100A30002000002002E008C8121F08C1002AFAD1D5
:100A400070477047002001E001C1121F002AFBD14E
:100A500070472DE9F84F994692468846054600278B
:100A600006E025280AD051464A4690476D1C7F1C57
:100A700028780028F5D13846BDE8F88F002315F80E
:100A8000011F18462E2915D115F8011F04232A2904
:100A90000DD06FF02F022978A1F13004092C09D86C
:100AA00000EB800002EB400008446D1CF3E758F8AF
:100AB000040B6D1C2A78002ADDD0632A07D0732A24
:100AC0000FD0104651464A4690477F1C2AE018F83E
:100AD000042B8DF8002000218DF801106E460121B5
:100AE00003E058F8046B4FF0FF315A074FF0000451
:100AF00001D409E0641C84420BDA8C42FADB325DDB
:100B0000002AF7D105E0641C8C42FCDB305D002834
:100B1000F9D1274404E016F8010B51464A469047A4
:100B2000641EF8D26D1CA3E7002107E04FF4FA51D0
:100B300000BF0A00A1F1010399B2FAD10200A0F1AD
:100B4000010398B2F2D1704770B504460D46E1B288
:100B50000548FFF75AFF00BF80210348FFF787FED3
:100B60000028F9D0204670BD003801400EB54FF482
:100B7000E130FFF705FC4FF4A060FFF7F7FC00241D
:100B8000FFF7CAFBFFF7AAFBFFF700FB8FA08FA1BF
:100B90008EA28EA3CDE9002102908DA290A1924851
:100BA000FFF738FF11E10020FFF744FC0446002C5A
:100BB00069D0012C42D0022C2CD0032C16D0042C4E
:100BC00060D100BF81018948FFF7CCFB20B1A101B2
:100BD0008648FFF7D0FB04E04FF480718348FFF7AD
:100BE000CCFB00BF82A0FFF715FF4BE000BF202128
:100BF0007E48FFF7B7FB20B120217C48FFF7BBFB05
:100C000003E020217948FFF7B8FB00BF80A0FFF781
:100C100001FF37E000BF20218548FFF7A3FB20B18B
:100C200020218348FFF7A7FB03E020218048FFF73E
:100C3000A4FB00BF76A0FFF7EDFE23E000BF20215C
:100C40006A48FFF78FFB20B120216848FFF793FB2C
:100C500003E020216548FFF790FB00BF00BF202183
:100C60007348FFF77FFB20B120217148FFF783FB1A
:100C700003E020216E48FFF780FB00BF6DA0FFF767
:100C8000C9FE00BF00BF7548007801288AD1002046
:100C9000724908707248007830286ED170484078E8
:100CA0003528FAD16E48807830287FD16C48C078DA
:100CB00031280BD06A48C078322807D06848C078FD
:100CC000332803D06648C07834286FD16448C07890
:100CD000312806D0322828D033283AD0342864D19D
:100CE0004CE000BF20214148FFF73CFB20B1202110
:100CF0003E48FFF740FB03E020213C48FFF73DFB67
:100D000000BF00BF20214A48FFF72CFB20B1202163
:100D10004748FFF730FB03E020214548FFF72DFB54
:100D200000BF50A0FFF776FE3FE000BF2021404803
:100D3000FFF718FB20B120213D48FFF71CFB03E023
:100D400020213B48FFF719FB00BF50A0FFF762FED0
:100D50002BE000BF20212548FFF704FB20B1202114
:100D60002248FFF708FB03E020212048FFF705FB9E
:100D700000BF4EA0FFF74EFE17E017E000BF4FF494
:100D800080711A48FFF7EEFA28B14FF480711748C6
:100D9000FFF7F1FA04E04FF480711448FFF7EDFA21
:100DA00000BF4AA0FFF736FE00BF0EE050A0FFF7DD
:100DB00031FE06A005A105A204A3CDE90021029001
:100DC00003A207A10848FFF725FEECE63035000036
:100DD00032303231313630363732303500000000B3
:100DE000C2DEC9DCC1D60000180F0008000C0140AB
:100DF0000D0AB0B4BCFCB2D9D7F7B3C9B9A6A3AC3D
:100E0000C3F9C6F7D7B4CCACB7ADD7AA0D0A00006A
:100E10000D0AB0B4BCFCB2D9D7F7B3C9B9A6A3AC1C
:100E2000C2CCB5C6D7B4CCACB7ADD7AA0D0A0000BA
:100E3000001801400D0AB0B4BCFCB2D9D7F7B3C951
:100E4000B9A6A3ACC2CCB5C6BACDBAECB5C6D7B4B8
:100E5000CCACB7ADD7AA0D0A0000000000000020FE
:100E6000240000200D0AB4AEBFDAB7A2CBCDB3C9BF
:100E7000B9A6A3ACBAECB5C6D3EBC2CCB5C6D7B451
:100E8000CCACB7ADD7AA0D0A000000000D0AB4AE75
:100E9000BFDAB7A2CBCDB3C9B9A6A3ACC2CCB5C695
:100EA000D7B4CCACB7ADD7AA0D0A00000D0AB4AECA
:100EB000BFDAB7A2CBCDB3C9B9A6A3ACBAECB5C65D
:100EC000D7B4CCACB7ADD7AA0D0A00000D0AB4AEAA
:100ED000BFDAB7A2CBCDB3C9B9A6A3ACB7E4C3F907
:100EE000C6F7D7B4CCACB7ADD7AA0D0A0000000046
:100EF0000D0A0D0ACAE4C8EBD3D0CEF3A3ACD6D802
:100F0000D0C2CAE4C8EBD6B8C1EE0D0A0D0A0D0A6C
:100F10000D0A0D0A0D0A0000D0D5C3FBA3BA257334
:100F2000A3ACD1A7BAC5A3BA25730D0A0D0AB0B4F4
:100F3000BCFC204B45593020BFD8D6C6BAECC9AB53
:100F4000B5C4445330BACDC2CCC9ABB5C444533197
:100F5000A3ACB0B4D2BBB4CEA3ACCBFBC3C7B5C4B7
:100F6000D7B4CCACBECDB7ADD7AAD2BBB4CEA1A3BB
:100F70000D0AB0B4BCFC204B45593120BFD8D6C6B1
:100F8000C2CCC9ABB5C4445331A3ACB0B4D2BBB42A
:100F9000CEC1C1A3ACD4D9B0B4D2BBB4CEC3F0A13E
:100FA000A30D0AB0B4BCFC204B45593220BFD8D6A3
:100FB000C6BAECC9ABB5C4445330A3ACB0B4D2BBD1
:100FC000B4CEC1C1A3ACD4D9B0B4D2BBB4CEC3F0FB
:100FD000A1A30D0AB0B4BCFC20574B5F555020BFF5
:100FE000D8D6C6B7E4C3F9C6F7A3ACB0B4D2BBB485
:100FF000CEBDD0A3ACD4D9B0B4D2BBB4CECDA3A116
:10100000A30D0A0D0AB4AEBFDAD6FACAD6B7A2CB80
:10101000CDD2BBB4CE25733031A3ACBAECC9ABB5DD
:10102000C4445330BACDC2CCC9ABB5C4445331B5B6
:10103000C4D7B4CCACBECDB7ADD7AAD2BBB4CEA1C9
:10104000A30D0AB4AEBFDAD6FACAD6B7A2CBCDD2B8
:10105000BBB4CE25733032A3ACC2CCC9ABB5C4444B
:101060005331C1C1C3F0BECDBDBBBBBBD2BBB4CE3F
:10107000A1A30D0AB4AEBFDAD6FACAD6B7A2CBCDB9
:10108000D2BBB4CE25733033A3ACBAECC9ABB5C474
:10109000445330C1C1C3F0BECDBDBBBBBBD2BBB49A
:1010A000CEA1A30D0AB4AEBFDAD6FACAD6B7A2CB88
:1010B000CDD2BBB4CE25733034A3ACB7E4C3F9C6EC
:1010C000F7C3F9CDA3BECDBDBBBBBBD2BBB4CE2E47
:1010D0000D0A0000F41000080000002024000000A9
:1010E000340A00081811000824000020040500003C
:1010F000440A000800000000000000000100000099
:1011000000010203040102030406070809020406A1
:081110000800000000000000CF
:0400000508000131BD
:00000001FF
